{
  "contractName": "Activities",
  "abi": [
    {
      "inputs": [
        {
          "internalType": "string",
          "name": "_activityType",
          "type": "string"
        },
        {
          "internalType": "uint256",
          "name": "_date",
          "type": "uint256"
        },
        {
          "internalType": "uint256",
          "name": "_price",
          "type": "uint256"
        },
        {
          "internalType": "string",
          "name": "_place",
          "type": "string"
        },
        {
          "internalType": "string",
          "name": "_info",
          "type": "string"
        }
      ],
      "payable": false,
      "stateMutability": "nonpayable",
      "type": "constructor"
    },
    {
      "constant": true,
      "inputs": [
        {
          "internalType": "uint256",
          "name": "",
          "type": "uint256"
        }
      ],
      "name": "activitiesList",
      "outputs": [
        {
          "internalType": "string",
          "name": "activityType",
          "type": "string"
        },
        {
          "internalType": "uint256",
          "name": "date",
          "type": "uint256"
        },
        {
          "internalType": "uint256",
          "name": "price",
          "type": "uint256"
        },
        {
          "internalType": "string",
          "name": "place",
          "type": "string"
        },
        {
          "internalType": "string",
          "name": "additionalNotes",
          "type": "string"
        },
        {
          "internalType": "uint256",
          "name": "healthRating",
          "type": "uint256"
        }
      ],
      "payable": false,
      "stateMutability": "view",
      "type": "function"
    },
    {
      "constant": false,
      "inputs": [
        {
          "internalType": "string",
          "name": "_activityType",
          "type": "string"
        },
        {
          "internalType": "uint256",
          "name": "datae",
          "type": "uint256"
        },
        {
          "internalType": "uint256",
          "name": "price",
          "type": "uint256"
        },
        {
          "internalType": "string",
          "name": "place",
          "type": "string"
        },
        {
          "internalType": "string",
          "name": "_additionalNotes",
          "type": "string"
        },
        {
          "internalType": "uint256",
          "name": "_healthRating",
          "type": "uint256"
        }
      ],
      "name": "addActivity",
      "outputs": [],
      "payable": false,
      "stateMutability": "nonpayable",
      "type": "function"
    },
    {
      "constant": true,
      "inputs": [],
      "name": "returnDetail",
      "outputs": [
        {
          "internalType": "string[]",
          "name": "",
          "type": "string[]"
        }
      ],
      "payable": false,
      "stateMutability": "view",
      "type": "function"
    }
  ],
  "bytecode": "0x60806040523480156200001157600080fd5b50604051620011e5380380620011e583398181016040526200003791908101906200023d565b60006040518060c00160405280878152602001868152602001858152602001848152602001838152602001600a815250908060018154018082558091505090600182039060005260206000209060060201600090919290919091506000820151816000019080519060200190620000b09291906200011b565b5060208201518160010155604082015181600201556060820151816003019080519060200190620000e39291906200011b565b506080820151816004019080519060200190620001029291906200011b565b5060a082015181600501555050505050505050620003bf565b828054600181600116156101000203166002900490600052602060002090601f016020900481019282601f106200015e57805160ff19168380011785556200018f565b828001600101855582156200018f579182015b828111156200018e57825182559160200191906001019062000171565b5b5090506200019e9190620001a2565b5090565b620001c791905b80821115620001c3576000816000905550600101620001a9565b5090565b90565b600082601f830112620001dc57600080fd5b8151620001f3620001ed8262000338565b6200030a565b915080825260208301602083018583830111156200021057600080fd5b6200021d8382846200036f565b50505092915050565b6000815190506200023781620003a5565b92915050565b600080600080600060a086880312156200025657600080fd5b600086015167ffffffffffffffff8111156200027157600080fd5b6200027f88828901620001ca565b9550506020620002928882890162000226565b9450506040620002a58882890162000226565b935050606086015167ffffffffffffffff811115620002c357600080fd5b620002d188828901620001ca565b925050608086015167ffffffffffffffff811115620002ef57600080fd5b620002fd88828901620001ca565b9150509295509295909350565b6000604051905081810181811067ffffffffffffffff821117156200032e57600080fd5b8060405250919050565b600067ffffffffffffffff8211156200035057600080fd5b601f19601f8301169050602081019050919050565b6000819050919050565b60005b838110156200038f57808201518184015260208101905062000372565b838111156200039f576000848401525b50505050565b620003b08162000365565b8114620003bc57600080fd5b50565b610e1680620003cf6000396000f3fe608060405234801561001057600080fd5b50600436106100415760003560e01c8063392654d514610046578063e9bc0e3a14610062578063f5ff193a14610097575b600080fd5b610060600480360361005b9190810190610a04565b6100b5565b005b61007c60048036036100779190810190610ad5565b61018f565b60405161008e96959493929190610c2a565b60405180910390f35b61009f6103a0565b6040516100ac9190610c08565b60405180910390f35b60006040518060c001604052808881526020018781526020018681526020018581526020018481526020018381525090806001815401808255809150509060018203906000526020600020906006020160009091929091909150600082015181600001908051906020019061012b9291906108c0565b506020820151816001015560408201518160020155606082015181600301908051906020019061015c9291906108c0565b5060808201518160040190805190602001906101799291906108c0565b5060a08201518160050155505050505050505050565b6000818154811061019c57fe5b9060005260206000209060060201600091509050806000018054600181600116156101000203166002900480601f0160208091040260200160405190810160405280929190818152602001828054600181600116156101000203166002900480156102485780601f1061021d57610100808354040283529160200191610248565b820191906000526020600020905b81548152906001019060200180831161022b57829003601f168201915b505050505090806001015490806002015490806003018054600181600116156101000203166002900480601f0160208091040260200160405190810160405280929190818152602001828054600181600116156101000203166002900480156102f25780601f106102c7576101008083540402835291602001916102f2565b820191906000526020600020905b8154815290600101906020018083116102d557829003601f168201915b505050505090806004018054600181600116156101000203166002900480601f0160208091040260200160405190810160405280929190818152602001828054600181600116156101000203166002900480156103905780601f1061036557610100808354040283529160200191610390565b820191906000526020600020905b81548152906001019060200180831161037357829003601f168201915b5050505050908060050154905086565b606060008090506000809050600080600080549050905080600682020191506060826040519080825280602002602001820160405280156103f557816020015b60608152602001906001900390816103e05790505b5090505b81851015610788576040518060400160405280600281526020017f3e3e00000000000000000000000000000000000000000000000000000000000081525081858151811061044357fe5b6020026020010181905250838060010194505061045e610940565b6000868154811061046b57fe5b90600052602060002090600602016040518060c0016040529081600082018054600181600116156101000203166002900480601f01602080910402602001604051908101604052809291908181526020018280546001816001161561010002031660029004801561051d5780601f106104f25761010080835404028352916020019161051d565b820191906000526020600020905b81548152906001019060200180831161050057829003601f168201915b505050505081526020016001820154815260200160028201548152602001600382018054600181600116156101000203166002900480601f0160208091040260200160405190810160405280929190818152602001828054600181600116156101000203166002900480156105d35780601f106105a8576101008083540402835291602001916105d3565b820191906000526020600020905b8154815290600101906020018083116105b657829003601f168201915b50505050508152602001600482018054600181600116156101000203166002900480601f0160208091040260200160405190810160405280929190818152602001828054600181600116156101000203166002900480156106755780601f1061064a57610100808354040283529160200191610675565b820191906000526020600020905b81548152906001019060200180831161065857829003601f168201915b505050505081526020016005820154815250509050806000015182868151811061069b57fe5b602002602001018190525084806001019550506106bb8160200151610793565b8286815181106106c757fe5b602002602001018190525084806001019550506106e78160400151610793565b8286815181106106f357fe5b60200260200101819052508480600101955050806060015182868151811061071757fe5b60200260200101819052508480600101955050806080015182868151811061073b57fe5b6020026020010181905250848060010195505061075b8160a00151610793565b82868151811061076757fe5b602002602001018190525084806001019550508580600101965050506103f9565b809550505050505090565b606060008214156107db576040518060400160405280600181526020017f300000000000000000000000000000000000000000000000000000000000000081525090506108bb565b600082905060005b60008214610805578080600101915050600a82816107fd57fe5b0491506107e3565b6060816040519080825280601f01601f19166020018201604052801561083a5781602001600182028038833980820191505090505b50905060006001830390505b600086146108b357600a868161085857fe5b0660300160f81b8282806001900393508151811061087257fe5b60200101907effffffffffffffffffffffffffffffffffffffffffffffffffffffffffffff1916908160001a905350600a86816108ab57fe5b049550610846565b819450505050505b919050565b828054600181600116156101000203166002900490600052602060002090601f016020900481019282601f1061090157805160ff191683800117855561092f565b8280016001018555821561092f579182015b8281111561092e578251825591602001919060010190610913565b5b50905061093c9190610976565b5090565b6040518060c001604052806060815260200160008152602001600081526020016060815260200160608152602001600081525090565b61099891905b8082111561099457600081600090555060010161097c565b5090565b90565b600082601f8301126109ac57600080fd5b81356109bf6109ba82610ccd565b610ca0565b915080825260208301602083018583830111156109db57600080fd5b6109e6838284610d69565b50505092915050565b6000813590506109fe81610dbc565b92915050565b60008060008060008060c08789031215610a1d57600080fd5b600087013567ffffffffffffffff811115610a3757600080fd5b610a4389828a0161099b565b9650506020610a5489828a016109ef565b9550506040610a6589828a016109ef565b945050606087013567ffffffffffffffff811115610a8257600080fd5b610a8e89828a0161099b565b935050608087013567ffffffffffffffff811115610aab57600080fd5b610ab789828a0161099b565b92505060a0610ac889828a016109ef565b9150509295509295509295565b600060208284031215610ae757600080fd5b6000610af5848285016109ef565b91505092915050565b6000610b0a8383610b87565b905092915050565b6000610b1d82610d09565b610b278185610d2c565b935083602082028501610b3985610cf9565b8060005b85811015610b755784840389528151610b568582610afe565b9450610b6183610d1f565b925060208a01995050600181019050610b3d565b50829750879550505050505092915050565b6000610b9282610d14565b610b9c8185610d3d565b9350610bac818560208601610d78565b610bb581610dab565b840191505092915050565b6000610bcb82610d14565b610bd58185610d4e565b9350610be5818560208601610d78565b610bee81610dab565b840191505092915050565b610c0281610d5f565b82525050565b60006020820190508181036000830152610c228184610b12565b905092915050565b600060c0820190508181036000830152610c448189610bc0565b9050610c536020830188610bf9565b610c606040830187610bf9565b8181036060830152610c728186610bc0565b90508181036080830152610c868185610bc0565b9050610c9560a0830184610bf9565b979650505050505050565b6000604051905081810181811067ffffffffffffffff82111715610cc357600080fd5b8060405250919050565b600067ffffffffffffffff821115610ce457600080fd5b601f19601f8301169050602081019050919050565b6000819050602082019050919050565b600081519050919050565b600081519050919050565b6000602082019050919050565b600082825260208201905092915050565b600082825260208201905092915050565b600082825260208201905092915050565b6000819050919050565b82818337600083830152505050565b60005b83811015610d96578082015181840152602081019050610d7b565b83811115610da5576000848401525b50505050565b6000601f19601f8301169050919050565b610dc581610d5f565b8114610dd057600080fd5b5056fea365627a7a72315820f215874790f1067c726d7a07136f26791ba2d345dfcc67de7d55b78e236ce4386c6578706572696d656e74616cf564736f6c63430005100040",
  "source": "pragma solidity 0.5.16;\n\npragma experimental ABIEncoderV2;\n\n/** @title Activities. */\ncontract Activities{\n    //activity object. \n  struct  activity {\n        string activityType;\n        uint256 date;\n        uint256 price;\n        string place;\n        string additionalNotes;\n        uint256 healthRating;\n    }\n    //list of objects\n     activity[] public activitiesList;\n     //constructor\n    constructor (string memory _activityType, uint256 _date, \n        uint256 _price, string memory  _place, string memory _info) public{\n            \n        activitiesList.push(activity(_activityType,_date,_price,_place,_info,10));\n     \n    }\n    \n    /** @dev to add activities Vhecle has gone through.\n     * @param _activityType activity Type.\n     * @param datae date of rigistration.\n     * @param price price.\n     * @param place place\n     * @param  _additionalNotes any extra info.\n     * @param _healthRating health rating of the vehicle\n     */\n    function addActivity(string memory _activityType, uint datae, uint price, \n            string memory place, string memory _additionalNotes, uint _healthRating) public { \n         activitiesList.push(activity(_activityType,datae,price,place,_additionalNotes,_healthRating));\n     }\n\n   /** @dev to return vehicle history..\n     */  \n      function  returnDetail()public  view returns(string[] memory ){\n          uint  index=0;\n          uint temp=0;\n          uint lenghtofStringArray;\n          uint activitylistLength= activitiesList.length;\n          lenghtofStringArray=activitylistLength*6+activitylistLength;\n         string[] memory st=new string[](lenghtofStringArray);\n           while(index<activitylistLength){\n               st[temp]=\">>\";\n             temp++;\n            activity memory  _activity=activitiesList[index];\n            st[temp]=_activity.activityType;\n                temp++;\n               st[temp]=uint2str(_activity.date);\n                temp++;\n               st[temp]=uint2str(_activity.price);\n                temp++;\n               st[temp]=_activity.place;\n              temp++;\n               st[temp]=_activity.additionalNotes;\n               temp++;\n               st[temp]=uint2str(_activity.healthRating);\n               temp++;\n               index++;\n           }\n          return st;\n      }\n\n//integer to string converter\nfunction uint2str(uint _i) internal pure returns (string memory _uintAsString) {\n    if (_i == 0) {\n        return \"0\";\n    }\n    uint j = _i;\n    uint len;\n    while (j != 0) {\n        len++;\n        j /= 10;\n    }\n    bytes memory bstr = new bytes(len);\n    uint k = len - 1;\n    while (_i != 0) {\n        bstr[k--] = byte(uint8(48 + _i % 10));\n        _i /= 10;\n    }\n    return string(bstr);\n}\n}\n",
  "sourcePath": "/home/madhu/ethereum/VehicleHistory/contracts/Activities.sol",
  "compiler": {
    "name": "solc",
    "version": "0.5.16+commit.9c3226ce.Emscripten.clang"
  },
  "schemaVersion": "3.1.0",
  "updatedAt": "2020-05-31T16:35:45.643Z",
  "networkType": "ethereum",
  "devdoc": {
    "methods": {
      "addActivity(string,uint256,uint256,string,string,uint256)": {
        "details": "to add activities Vhecle has gone through.",
        "params": {
          "_activityType": "activity Type.",
          "_additionalNotes": "any extra info.",
          "_healthRating": "health rating of the vehicle",
          "datae": "date of rigistration.",
          "place": "place",
          "price": "price."
        }
      },
      "returnDetail()": {
        "details": "to return vehicle history.."
      }
    },
    "title": "Activities. "
  },
  "userdoc": {
    "methods": {}
  }
}