{
  "contractName": "ServiceCenters",
  "abi": [
    {
      "anonymous": false,
      "inputs": [
        {
          "indexed": false,
          "internalType": "address",
          "name": "registeredAddress",
          "type": "address"
        }
      ],
      "name": "ServiceCenterRigistered",
      "type": "event"
    },
    {
      "constant": false,
      "inputs": [
        {
          "internalType": "string",
          "name": "_servicecenter",
          "type": "string"
        }
      ],
      "name": "addServiceCenter",
      "outputs": [],
      "payable": false,
      "stateMutability": "nonpayable",
      "type": "function"
    },
    {
      "constant": true,
      "inputs": [
        {
          "internalType": "address",
          "name": "_serviceCenter",
          "type": "address"
        }
      ],
      "name": "returnServiceCenter",
      "outputs": [
        {
          "internalType": "string",
          "name": "_servicecenter",
          "type": "string"
        }
      ],
      "payable": false,
      "stateMutability": "view",
      "type": "function"
    },
    {
      "constant": true,
      "inputs": [
        {
          "internalType": "address",
          "name": "_serviceCenter",
          "type": "address"
        }
      ],
      "name": "isValidServceCenter",
      "outputs": [
        {
          "internalType": "bool",
          "name": "",
          "type": "bool"
        }
      ],
      "payable": false,
      "stateMutability": "view",
      "type": "function"
    }
  ],
  "bytecode": "0x608060405234801561001057600080fd5b506106b8806100206000396000f3fe608060405234801561001057600080fd5b50600436106100415760003560e01c806331b4a2eb146100465780635c9c872914610101578063d59aca87146101be575b600080fd5b6100ff6004803603602081101561005c57600080fd5b810190808035906020019064010000000081111561007957600080fd5b82018360208201111561008b57600080fd5b803590602001918460018302840111640100000000831117156100ad57600080fd5b91908080601f016020809104026020016040519081016040528093929190818152602001838380828437600081840152601f19601f82011690508083019250505050505050919291929050505061021a565b005b6101436004803603602081101561011757600080fd5b81019080803573ffffffffffffffffffffffffffffffffffffffff1690602001909291905050506103ea565b6040518080602001828103825283818151815260200191508051906020019080838360005b83811015610183578082015181840152602081019050610168565b50505050905090810190601f1680156101b05780820380516001836020036101000a031916815260200191505b509250505060405180910390f35b610200600480360360208110156101d457600080fd5b81019080803573ffffffffffffffffffffffffffffffffffffffff169060200190929190505050610589565b604051808215151515815260200191505060405180910390f35b6000803373ffffffffffffffffffffffffffffffffffffffff1673ffffffffffffffffffffffffffffffffffffffff16815260200190815260200160002060009054906101000a900460ff16156102d9576040517f08c379a00000000000000000000000000000000000000000000000000000000081526004018080602001828103825260208152602001807f5365727669636543656e74657220616c7265616479205269676973746572656481525060200191505060405180910390fd5b60016000803373ffffffffffffffffffffffffffffffffffffffff1673ffffffffffffffffffffffffffffffffffffffff16815260200190815260200160002060006101000a81548160ff02191690831515021790555080600160003373ffffffffffffffffffffffffffffffffffffffff1673ffffffffffffffffffffffffffffffffffffffff16815260200190815260200160002090805190602001906103839291906105de565b507f6dfd74053db9c91f1d49ed3bb31cd65467b1791576e46a2b1619e869aa2b724233604051808273ffffffffffffffffffffffffffffffffffffffff1673ffffffffffffffffffffffffffffffffffffffff16815260200191505060405180910390a150565b60606000808373ffffffffffffffffffffffffffffffffffffffff1673ffffffffffffffffffffffffffffffffffffffff16815260200190815260200160002060009054906101000a900460ff166104aa576040517f08c379a000000000000000000000000000000000000000000000000000000000815260040180806020018281038252601f8152602001807f5365727669636543656e746572206973206e6f7420526967697374657265640081525060200191505060405180910390fd5b600160003373ffffffffffffffffffffffffffffffffffffffff1673ffffffffffffffffffffffffffffffffffffffff1681526020019081526020016000208054600181600116156101000203166002900480601f01602080910402602001604051908101604052809291908181526020018280546001816001161561010002031660029004801561057d5780601f106105525761010080835404028352916020019161057d565b820191906000526020600020905b81548152906001019060200180831161056057829003601f168201915b50505050509050919050565b60008060008373ffffffffffffffffffffffffffffffffffffffff1673ffffffffffffffffffffffffffffffffffffffff16815260200190815260200160002060009054906101000a900460ff169050919050565b828054600181600116156101000203166002900490600052602060002090601f016020900481019282601f1061061f57805160ff191683800117855561064d565b8280016001018555821561064d579182015b8281111561064c578251825591602001919060010190610631565b5b50905061065a919061065e565b5090565b61068091905b8082111561067c576000816000905550600101610664565b5090565b9056fea265627a7a723158200f8ba36a2ef2516fc5d89a9f3318b30ec174b9546dac54bb4bd09b0a57f7773164736f6c63430005100032",
  "source": "pragma solidity 0.5.16;\n\n/** @title Service Center . */\ncontract ServiceCenters{\n    mapping(address=>bool) serviceneterAddrs; //to know transacting address is registered or not. \n    mapping(address=>string) serviceCenters; // to store service center name.\n    event ServiceCenterRigistered(address registeredAddress);\n     /** @dev to record service center.\n     * @param _servicecenter Service Center name.\n     */\n   function addServiceCenter(string memory _servicecenter) public{\n        require(!serviceneterAddrs[msg.sender],\"ServiceCenter already Rigistered\");\n        serviceneterAddrs[msg.sender]=true;\n        serviceCenters[msg.sender]=_servicecenter;\n        emit ServiceCenterRigistered(msg.sender);\n    }\n     /** @dev to fetch servcice center name with respect to address.\n     * @param _serviceCenter Service Center address.\n      *@return _servicecenter service center name\n     */\n    function returnServiceCenter(address _serviceCenter)public view returns(string memory _servicecenter){\n        require(serviceneterAddrs[_serviceCenter],\"ServiceCenter is not Rigistered\");\n        return serviceCenters[msg.sender];\n    }\n     /** @dev to know if there exists a service center with respect to address.\n     * @param _serviceCenter Service Center address.\n      *@return bool returns true if exists else false.\n     */\n    function isValidServceCenter(address _serviceCenter) public view returns(bool){\n        return serviceneterAddrs[_serviceCenter];\n    }\n}",
  "sourcePath": "/home/madhu/ethereum/VehicleHistory/contracts/ServiceCenters.sol",
  "compiler": {
    "name": "solc",
    "version": "0.5.16+commit.9c3226ce.Emscripten.clang"
  },
  "schemaVersion": "3.1.0",
  "updatedAt": "2020-05-31T16:35:45.997Z",
  "networkType": "ethereum",
  "devdoc": {
    "methods": {
      "addServiceCenter(string)": {
        "details": "to record service center.",
        "params": {
          "_servicecenter": "Service Center name."
        }
      },
      "isValidServceCenter(address)": {
        "details": "to know if there exists a service center with respect to address.",
        "params": {
          "_serviceCenter": "Service Center address. return bool returns true if exists else false."
        }
      },
      "returnServiceCenter(address)": {
        "details": "to fetch servcice center name with respect to address.",
        "params": {
          "_serviceCenter": "Service Center address. return _servicecenter service center name"
        }
      }
    },
    "title": "Service Center . "
  },
  "userdoc": {
    "methods": {}
  }
}