{
  "contractName": "VehicleHistory",
  "abi": [
    {
      "anonymous": false,
      "inputs": [
        {
          "indexed": false,
          "internalType": "address",
          "name": "toAddre",
          "type": "address"
        }
      ],
      "name": "transferedeth",
      "type": "event"
    },
    {
      "anonymous": false,
      "inputs": [
        {
          "indexed": true,
          "internalType": "address",
          "name": "vehicleaddr",
          "type": "address"
        },
        {
          "indexed": true,
          "internalType": "string",
          "name": "_vehicleNumber",
          "type": "string"
        }
      ],
      "name": "vehicleReadyForSell",
      "type": "event"
    },
    {
      "anonymous": false,
      "inputs": [
        {
          "indexed": false,
          "internalType": "uint256",
          "name": "numberOfVeh",
          "type": "uint256"
        }
      ],
      "name": "vehicleRegistered",
      "type": "event"
    },
    {
      "constant": true,
      "inputs": [
        {
          "internalType": "string",
          "name": "",
          "type": "string"
        }
      ],
      "name": "currentOwner",
      "outputs": [
        {
          "internalType": "address",
          "name": "",
          "type": "address"
        }
      ],
      "payable": false,
      "stateMutability": "view",
      "type": "function"
    },
    {
      "constant": true,
      "inputs": [
        {
          "internalType": "address",
          "name": "",
          "type": "address"
        }
      ],
      "name": "manufacturer",
      "outputs": [
        {
          "internalType": "string",
          "name": "",
          "type": "string"
        }
      ],
      "payable": false,
      "stateMutability": "view",
      "type": "function"
    },
    {
      "constant": true,
      "inputs": [
        {
          "internalType": "address",
          "name": "",
          "type": "address"
        }
      ],
      "name": "modelname",
      "outputs": [
        {
          "internalType": "string",
          "name": "",
          "type": "string"
        }
      ],
      "payable": false,
      "stateMutability": "view",
      "type": "function"
    },
    {
      "constant": true,
      "inputs": [
        {
          "internalType": "address",
          "name": "",
          "type": "address"
        }
      ],
      "name": "modelyear",
      "outputs": [
        {
          "internalType": "uint256",
          "name": "",
          "type": "uint256"
        }
      ],
      "payable": false,
      "stateMutability": "view",
      "type": "function"
    },
    {
      "constant": true,
      "inputs": [
        {
          "internalType": "uint256",
          "name": "",
          "type": "uint256"
        }
      ],
      "name": "readyForSellList",
      "outputs": [
        {
          "internalType": "string",
          "name": "",
          "type": "string"
        }
      ],
      "payable": false,
      "stateMutability": "view",
      "type": "function"
    },
    {
      "constant": true,
      "inputs": [
        {
          "internalType": "address",
          "name": "",
          "type": "address"
        }
      ],
      "name": "upForSell",
      "outputs": [
        {
          "internalType": "bool",
          "name": "",
          "type": "bool"
        }
      ],
      "payable": false,
      "stateMutability": "view",
      "type": "function"
    },
    {
      "constant": true,
      "inputs": [
        {
          "internalType": "address",
          "name": "",
          "type": "address"
        }
      ],
      "name": "vechicleActivities",
      "outputs": [
        {
          "internalType": "contract Activities",
          "name": "",
          "type": "address"
        }
      ],
      "payable": false,
      "stateMutability": "view",
      "type": "function"
    },
    {
      "constant": true,
      "inputs": [
        {
          "internalType": "string",
          "name": "",
          "type": "string"
        }
      ],
      "name": "vehicleNumber",
      "outputs": [
        {
          "internalType": "address",
          "name": "",
          "type": "address"
        }
      ],
      "payable": false,
      "stateMutability": "view",
      "type": "function"
    },
    {
      "constant": true,
      "inputs": [
        {
          "internalType": "address",
          "name": "",
          "type": "address"
        }
      ],
      "name": "vehicleType",
      "outputs": [
        {
          "internalType": "string",
          "name": "",
          "type": "string"
        }
      ],
      "payable": false,
      "stateMutability": "view",
      "type": "function"
    },
    {
      "constant": true,
      "inputs": [
        {
          "internalType": "uint256",
          "name": "",
          "type": "uint256"
        }
      ],
      "name": "vehiclesList",
      "outputs": [
        {
          "internalType": "string",
          "name": "",
          "type": "string"
        }
      ],
      "payable": false,
      "stateMutability": "view",
      "type": "function"
    },
    {
      "constant": false,
      "inputs": [
        {
          "internalType": "string",
          "name": "_vehicleNumber",
          "type": "string"
        },
        {
          "internalType": "string",
          "name": "_vehicleType",
          "type": "string"
        },
        {
          "internalType": "uint256",
          "name": "_date",
          "type": "uint256"
        },
        {
          "internalType": "uint256",
          "name": "_price",
          "type": "uint256"
        },
        {
          "internalType": "string",
          "name": "_place",
          "type": "string"
        },
        {
          "internalType": "string",
          "name": "_info",
          "type": "string"
        },
        {
          "internalType": "string",
          "name": "_manufacturer",
          "type": "string"
        },
        {
          "internalType": "string",
          "name": "_modelname",
          "type": "string"
        }
      ],
      "name": "registerVehicle",
      "outputs": [],
      "payable": false,
      "stateMutability": "nonpayable",
      "type": "function"
    },
    {
      "constant": false,
      "inputs": [
        {
          "internalType": "string",
          "name": "_vehicleNumber",
          "type": "string"
        }
      ],
      "name": "readyToSellMycar",
      "outputs": [],
      "payable": false,
      "stateMutability": "nonpayable",
      "type": "function"
    },
    {
      "constant": false,
      "inputs": [
        {
          "internalType": "string",
          "name": "_vehicleNumber",
          "type": "string"
        },
        {
          "internalType": "uint256",
          "name": "date",
          "type": "uint256"
        },
        {
          "internalType": "uint256",
          "name": "price",
          "type": "uint256"
        },
        {
          "internalType": "string",
          "name": "place",
          "type": "string"
        },
        {
          "internalType": "string",
          "name": "_additionalNotes",
          "type": "string"
        },
        {
          "internalType": "uint256",
          "name": "_healthRating",
          "type": "uint256"
        }
      ],
      "name": "sold",
      "outputs": [],
      "payable": true,
      "stateMutability": "payable",
      "type": "function"
    },
    {
      "constant": false,
      "inputs": [
        {
          "internalType": "string",
          "name": "_vehicleNumber",
          "type": "string"
        },
        {
          "internalType": "string",
          "name": "_activityType",
          "type": "string"
        },
        {
          "internalType": "uint256",
          "name": "date",
          "type": "uint256"
        },
        {
          "internalType": "uint256",
          "name": "price",
          "type": "uint256"
        },
        {
          "internalType": "string",
          "name": "place",
          "type": "string"
        },
        {
          "internalType": "string",
          "name": "_additionalNotes",
          "type": "string"
        },
        {
          "internalType": "uint256",
          "name": "_healthRating",
          "type": "uint256"
        }
      ],
      "name": "addVehicleActvity",
      "outputs": [],
      "payable": false,
      "stateMutability": "nonpayable",
      "type": "function"
    },
    {
      "constant": true,
      "inputs": [
        {
          "internalType": "string",
          "name": "_vehicleNumber",
          "type": "string"
        }
      ],
      "name": "returnDetail",
      "outputs": [
        {
          "internalType": "string[]",
          "name": "",
          "type": "string[]"
        }
      ],
      "payable": false,
      "stateMutability": "view",
      "type": "function"
    },
    {
      "constant": true,
      "inputs": [],
      "name": "numberOfRegisteredVehicle",
      "outputs": [
        {
          "internalType": "uint256",
          "name": "",
          "type": "uint256"
        }
      ],
      "payable": false,
      "stateMutability": "view",
      "type": "function"
    },
    {
      "constant": true,
      "inputs": [],
      "name": "numberOfReadyForSellVehicle",
      "outputs": [
        {
          "internalType": "uint256",
          "name": "",
          "type": "uint256"
        }
      ],
      "payable": false,
      "stateMutability": "view",
      "type": "function"
    }
  ],
  "bytecode": "0x608060405234801561001057600080fd5b50613a46806100206000396000f3fe608060405260043610620001165760003560e01c80636953665011620000a3578063bbef9f28116200006d578063bbef9f2814620003fd578063c02948be146200042d578063ce28f0f51462000471578063cea1766a146200049f578063d8d38be614620004e35762000116565b806369536650146200032557806372331258146200036957806383168b9c14620003ad578063a91ad63714620003dd5762000116565b806332056cca11620000e557806332056cca14620002155780633f4ca60214620002595780635fc06f72146200029d578063663f6dc214620002e15762000116565b806310769cd5146200011b578063166c38dd146200015f57806326bdfa77146200018d578063286e62db14620001d1575b600080fd5b3480156200012857600080fd5b5062000147600480360362000141919081019062001a97565b62000511565b604051620001569190620023ba565b60405180910390f35b3480156200016c57600080fd5b506200018b600480360362000185919081019062001b4d565b620005c5565b005b3480156200019a57600080fd5b50620001b96004803603620001b3919081019062001a97565b62000894565b604051620001c891906200239d565b60405180910390f35b348015620001de57600080fd5b50620001fd6004803603620001f7919081019062001a97565b620008c7565b6040516200020c9190620023ba565b60405180910390f35b3480156200022257600080fd5b506200024160048036036200023b919081019062001edd565b6200097b565b604051620002509190620023ba565b60405180910390f35b3480156200026657600080fd5b506200028560048036036200027f919081019062001b08565b62000a39565b60405162000294919062002322565b60405180910390f35b348015620002aa57600080fd5b50620002c96004803603620002c3919081019062001b08565b62000a82565b604051620002d8919062002322565b60405180910390f35b348015620002ee57600080fd5b506200030d600480360362000307919081019062001b4d565b62000acb565b6040516200031c91906200235c565b60405180910390f35b3480156200033257600080fd5b506200035160048036036200034b919081019062001a97565b62000cd5565b6040516200036091906200259c565b60405180910390f35b3480156200037657600080fd5b506200039560048036036200038f919081019062001edd565b62000ced565b604051620003a49190620023ba565b60405180910390f35b348015620003ba57600080fd5b50620003c562000dab565b604051620003d491906200259c565b60405180910390f35b620003fb6004803603620003f5919081019062001dfc565b62000db8565b005b3480156200040a57600080fd5b506200041562001288565b6040516200042491906200259c565b60405180910390f35b3480156200043a57600080fd5b5062000459600480360362000453919081019062001a97565b62001295565b604051620004689190620023ba565b60405180910390f35b3480156200047e57600080fd5b506200049d600480360362000497919081019062001b92565b62001349565b005b348015620004ac57600080fd5b50620004cb6004803603620004c5919081019062001a97565b620016d4565b604051620004da919062002380565b60405180910390f35b348015620004f057600080fd5b506200050f600480360362000509919081019062001ceb565b620016f4565b005b60026020528060005260406000206000915090508054600181600116156101000203166002900480601f016020809104026020016040519081016040528092919081815260200182805460018160011615610100020316600290048015620005bd5780601f106200059157610100808354040283529160200191620005bd565b820191906000526020600020905b8154815290600101906020018083116200059f57829003601f168201915b505050505081565b80600181604051620005d8919062002309565b908152602001604051809103902060009054906101000a900473ffffffffffffffffffffffffffffffffffffffff1673ffffffffffffffffffffffffffffffffffffffff163373ffffffffffffffffffffffffffffffffffffffff16148015620006ae57506006816040516200064f919062002309565b908152602001604051809103902060009054906101000a900473ffffffffffffffffffffffffffffffffffffffff1673ffffffffffffffffffffffffffffffffffffffff163373ffffffffffffffffffffffffffffffffffffffff1614155b80620007255750600681604051620006c7919062002309565b908152602001604051809103902060009054906101000a900473ffffffffffffffffffffffffffffffffffffffff1673ffffffffffffffffffffffffffffffffffffffff163373ffffffffffffffffffffffffffffffffffffffff16145b62000767576040517f08c379a00000000000000000000000000000000000000000000000000000000081526004016200075e9062002514565b60405180910390fd5b600560003373ffffffffffffffffffffffffffffffffffffffff1673ffffffffffffffffffffffffffffffffffffffff16815260200190815260200160002060009054906101000a900460ff1615620007f7576040517f08c379a0000000000000000000000000000000000000000000000000000000008152600401620007ee90620024f2565b60405180910390fd5b6001600560003373ffffffffffffffffffffffffffffffffffffffff1673ffffffffffffffffffffffffffffffffffffffff16815260200190815260200160002060006101000a81548160ff02191690831515021790555060088290806001815401808255809150509060018203906000526020600020016000909192909190915090805190602001906200088e9291906200181b565b50505050565b60096020528060005260406000206000915054906101000a900473ffffffffffffffffffffffffffffffffffffffff1681565b60006020528060005260406000206000915090508054600181600116156101000203166002900480601f016020809104026020016040519081016040528092919081815260200182805460018160011615610100020316600290048015620009735780601f10620009475761010080835404028352916020019162000973565b820191906000526020600020905b8154815290600101906020018083116200095557829003601f168201915b505050505081565b600881815481106200098957fe5b906000526020600020016000915090508054600181600116156101000203166002900480601f01602080910402602001604051908101604052809291908181526020018280546001816001161561010002031660029004801562000a315780601f1062000a055761010080835404028352916020019162000a31565b820191906000526020600020905b81548152906001019060200180831162000a1357829003601f168201915b505050505081565b6001818051602081018201805184825260208301602085012081835280955050505050506000915054906101000a900473ffffffffffffffffffffffffffffffffffffffff1681565b6006818051602081018201805184825260208301602085012081835280955050505050506000915054906101000a900473ffffffffffffffffffffffffffffffffffffffff1681565b60606005600060018460405162000ae3919062002309565b908152602001604051809103902060009054906101000a900473ffffffffffffffffffffffffffffffffffffffff1673ffffffffffffffffffffffffffffffffffffffff1673ffffffffffffffffffffffffffffffffffffffff16815260200190815260200160002060009054906101000a900460ff1662000b9c576040517f08c379a000000000000000000000000000000000000000000000000000000000815260040162000b93906200257a565b60405180910390fd5b60006009600060018560405162000bb4919062002309565b908152602001604051809103902060009054906101000a900473ffffffffffffffffffffffffffffffffffffffff1673ffffffffffffffffffffffffffffffffffffffff1673ffffffffffffffffffffffffffffffffffffffff16815260200190815260200160002060009054906101000a900473ffffffffffffffffffffffffffffffffffffffff16905060608173ffffffffffffffffffffffffffffffffffffffff1663f5ff193a6040518163ffffffff1660e01b815260040160006040518083038186803b15801562000c8957600080fd5b505afa15801562000c9e573d6000803e3d6000fd5b505050506040513d6000823e3d601f19601f8201168201806040525062000cc9919081019062001ac3565b90508092505050919050565b60046020528060005260406000206000915090505481565b6007818154811062000cfb57fe5b906000526020600020016000915090508054600181600116156101000203166002900480601f01602080910402602001604051908101604052809291908181526020018280546001816001161561010002031660029004801562000da35780601f1062000d775761010080835404028352916020019162000da3565b820191906000526020600020905b81548152906001019060200180831162000d8557829003601f168201915b505050505081565b6000600780549050905090565b6005600060018860405162000dce919062002309565b908152602001604051809103902060009054906101000a900473ffffffffffffffffffffffffffffffffffffffff1673ffffffffffffffffffffffffffffffffffffffff1673ffffffffffffffffffffffffffffffffffffffff16815260200190815260200160002060009054906101000a900460ff1662000e87576040517f08c379a000000000000000000000000000000000000000000000000000000000815260040162000e7e9062002536565b60405180910390fd5b7fbfe007944a4650a24c15127af5d8a737ab3ddf9eb2ca8342444f0a86136a9d8e60018760405162000eba919062002309565b908152602001604051809103902060009054906101000a900473ffffffffffffffffffffffffffffffffffffffff1660405162000ef8919062002322565b60405180910390a1600060018760405162000f14919062002309565b908152602001604051809103902060009054906101000a900473ffffffffffffffffffffffffffffffffffffffff169050600060068860405162000f59919062002309565b908152602001604051809103902060009054906101000a900473ffffffffffffffffffffffffffffffffffffffff1673ffffffffffffffffffffffffffffffffffffffff168173ffffffffffffffffffffffffffffffffffffffff161415620010055760018860405162000fce919062002309565b908152602001604051809103902060009054906101000a900473ffffffffffffffffffffffffffffffffffffffff16915062001049565b60068860405162001017919062002309565b908152602001604051809103902060009054906101000a900473ffffffffffffffffffffffffffffffffffffffff1691505b6200108f886040518060400160405280600681526020017f526573656c6c00000000000000000000000000000000000000000000000000008152508989898989620016f4565b60003373ffffffffffffffffffffffffffffffffffffffff16319050670de0b6b3a76400008702811015620010fb576040517f08c379a0000000000000000000000000000000000000000000000000000000008152600401620010f29062002558565b60405180910390fd5b8273ffffffffffffffffffffffffffffffffffffffff166108fc670de0b6b3a764000089029081150290604051600060405180830381858888f193505050501580156200114c573d6000803e3d6000fd5b507fbfe007944a4650a24c15127af5d8a737ab3ddf9eb2ca8342444f0a86136a9d8e836040516200117e91906200233f565b60405180910390a13360068a60405162001199919062002309565b908152602001604051809103902060006101000a81548173ffffffffffffffffffffffffffffffffffffffff021916908373ffffffffffffffffffffffffffffffffffffffff16021790555060006005600060018c604051620011fd919062002309565b908152602001604051809103902060009054906101000a900473ffffffffffffffffffffffffffffffffffffffff1673ffffffffffffffffffffffffffffffffffffffff1673ffffffffffffffffffffffffffffffffffffffff16815260200190815260200160002060006101000a81548160ff021916908315150217905550505050505050505050565b6000600880549050905090565b60036020528060005260406000206000915090508054600181600116156101000203166002900480601f016020809104026020016040519081016040528092919081815260200182805460018160011615610100020316600290048015620013415780601f10620013155761010080835404028352916020019162001341565b820191906000526020600020905b8154815290600101906020018083116200132357829003601f168201915b505050505081565b6000600460003373ffffffffffffffffffffffffffffffffffffffff1673ffffffffffffffffffffffffffffffffffffffff1681526020019081526020016000205490506000811115620013d4576040517f08c379a0000000000000000000000000000000000000000000000000000000008152600401620013cb9062002460565b60405180910390fd5b3360018a604051620013e7919062002309565b908152602001604051809103902060006101000a81548173ffffffffffffffffffffffffffffffffffffffff021916908373ffffffffffffffffffffffffffffffffffffffff160217905550876000803373ffffffffffffffffffffffffffffffffffffffff1673ffffffffffffffffffffffffffffffffffffffff1681526020019081526020016000209080519060200190620014879291906200181b565b5082600260003373ffffffffffffffffffffffffffffffffffffffff1673ffffffffffffffffffffffffffffffffffffffff1681526020019081526020016000209080519060200190620014dd9291906200181b565b5081600360003373ffffffffffffffffffffffffffffffffffffffff1673ffffffffffffffffffffffffffffffffffffffff1681526020019081526020016000209080519060200190620015339291906200181b565b506301e1338087816200154257fe5b046107b20161ffff16600460003373ffffffffffffffffffffffffffffffffffffffff1673ffffffffffffffffffffffffffffffffffffffff168152602001908152602001600020819055506007899080600181540180825580915050906001820390600052602060002001600090919290919091509080519060200190620015cd9291906200181b565b50507f992531bdeb276656dca6745b2d37b371ec7566cbd8eee0218f2fb7618c90d9076007805490506040516200160591906200259c565b60405180910390a1868686866040516200161f90620018a2565b6200162e949392919062002482565b604051809103906000f0801580156200164b573d6000803e3d6000fd5b50600960003373ffffffffffffffffffffffffffffffffffffffff1673ffffffffffffffffffffffffffffffffffffffff16815260200190815260200160002060006101000a81548173ffffffffffffffffffffffffffffffffffffffff021916908373ffffffffffffffffffffffffffffffffffffffff160217905550505050505050505050565b60056020528060005260406000206000915054906101000a900460ff1681565b60006009600060018a6040516200170c919062002309565b908152602001604051809103902060009054906101000a900473ffffffffffffffffffffffffffffffffffffffff1673ffffffffffffffffffffffffffffffffffffffff1673ffffffffffffffffffffffffffffffffffffffff16815260200190815260200160002060009054906101000a900473ffffffffffffffffffffffffffffffffffffffff1690508073ffffffffffffffffffffffffffffffffffffffff1663392654d58888888888886040518763ffffffff1660e01b8152600401620017dd96959493929190620023de565b600060405180830381600087803b158015620017f857600080fd5b505af11580156200180d573d6000803e3d6000fd5b505050505050505050505050565b828054600181600116156101000203166002900490600052602060002090601f016020900481019282601f106200185e57805160ff19168380011785556200188f565b828001600101855582156200188f579182015b828111156200188e57825182559160200191906001019062001871565b5b5090506200189e9190620018b0565b5090565b6111e5806200281f83390190565b620018d591905b80821115620018d1576000816000905550600101620018b7565b5090565b90565b600081359050620018e981620027ea565b92915050565b600082601f8301126200190157600080fd5b8151620019186200191282620025e7565b620025b9565b9150818183526020840193506020810190508360005b83811015620019625781518601620019478882620019c8565b8452602084019350602083019250506001810190506200192e565b5050505092915050565b600082601f8301126200197e57600080fd5b8135620019956200198f8262002610565b620025b9565b91508082526020830160208301858383011115620019b257600080fd5b620019bf83828462002794565b50505092915050565b600082601f830112620019da57600080fd5b8151620019f1620019eb8262002610565b620025b9565b9150808252602083016020830185838301111562001a0e57600080fd5b62001a1b838284620027a3565b50505092915050565b600082601f83011262001a3657600080fd5b813562001a4d62001a47826200263d565b620025b9565b9150808252602083016020830185838301111562001a6a57600080fd5b62001a7783828462002794565b50505092915050565b60008135905062001a918162002804565b92915050565b60006020828403121562001aaa57600080fd5b600062001aba84828501620018d8565b91505092915050565b60006020828403121562001ad657600080fd5b600082015167ffffffffffffffff81111562001af157600080fd5b62001aff84828501620018ef565b91505092915050565b60006020828403121562001b1b57600080fd5b600082013567ffffffffffffffff81111562001b3657600080fd5b62001b44848285016200196c565b91505092915050565b60006020828403121562001b6057600080fd5b600082013567ffffffffffffffff81111562001b7b57600080fd5b62001b898482850162001a24565b91505092915050565b600080600080600080600080610100898b03121562001bb057600080fd5b600089013567ffffffffffffffff81111562001bcb57600080fd5b62001bd98b828c0162001a24565b985050602089013567ffffffffffffffff81111562001bf757600080fd5b62001c058b828c0162001a24565b975050604062001c188b828c0162001a80565b965050606062001c2b8b828c0162001a80565b955050608089013567ffffffffffffffff81111562001c4957600080fd5b62001c578b828c0162001a24565b94505060a089013567ffffffffffffffff81111562001c7557600080fd5b62001c838b828c0162001a24565b93505060c089013567ffffffffffffffff81111562001ca157600080fd5b62001caf8b828c0162001a24565b92505060e089013567ffffffffffffffff81111562001ccd57600080fd5b62001cdb8b828c0162001a24565b9150509295985092959890939650565b600080600080600080600060e0888a03121562001d0757600080fd5b600088013567ffffffffffffffff81111562001d2257600080fd5b62001d308a828b0162001a24565b975050602088013567ffffffffffffffff81111562001d4e57600080fd5b62001d5c8a828b0162001a24565b965050604062001d6f8a828b0162001a80565b955050606062001d828a828b0162001a80565b945050608088013567ffffffffffffffff81111562001da057600080fd5b62001dae8a828b0162001a24565b93505060a088013567ffffffffffffffff81111562001dcc57600080fd5b62001dda8a828b0162001a24565b92505060c062001ded8a828b0162001a80565b91505092959891949750929550565b60008060008060008060c0878903121562001e1657600080fd5b600087013567ffffffffffffffff81111562001e3157600080fd5b62001e3f89828a0162001a24565b965050602062001e5289828a0162001a80565b955050604062001e6589828a0162001a80565b945050606087013567ffffffffffffffff81111562001e8357600080fd5b62001e9189828a0162001a24565b935050608087013567ffffffffffffffff81111562001eaf57600080fd5b62001ebd89828a0162001a24565b92505060a062001ed089828a0162001a80565b9150509295509295509295565b60006020828403121562001ef057600080fd5b600062001f008482850162001a80565b91505092915050565b600062001f1783836200205c565b905092915050565b62001f2a8162002730565b82525050565b62001f3b81620026e6565b82525050565b600062001f4e826200267a565b62001f5a8185620026a8565b93508360208202850162001f6e856200266a565b8060005b8581101562001fb0578484038952815162001f8e858262001f09565b945062001f9b836200269b565b925060208a0199505060018101905062001f72565b50829750879550505050505092915050565b62001fcd81620026fa565b82525050565b62001fde8162002744565b82525050565b600062001ff18262002690565b62001ffd8185620026ca565b93506200200f818560208601620027a3565b6200201a81620027d9565b840191505092915050565b6000620020328262002690565b6200203e8185620026db565b935062002050818560208601620027a3565b80840191505092915050565b6000620020698262002685565b620020758185620026b9565b935062002087818560208601620027a3565b6200209281620027d9565b840191505092915050565b6000620020aa8262002685565b620020b68185620026ca565b9350620020c8818560208601620027a3565b620020d381620027d9565b840191505092915050565b6000620020ed602a83620026ca565b91507f56656869636c6520616c7265616479207265676973746564207769746820746860008301527f69732061646472657373000000000000000000000000000000000000000000006020830152604082019050919050565b600062002155601083620026ca565b91507f4e657720526567697374726174696f6e000000000000000000000000000000006000830152602082019050919050565b600062002197602983620026ca565b91507f5665636869636c6520686173206265656e20616c7265616479206d61726b656460008301527f20666f722073656c6c00000000000000000000000000000000000000000000006020830152604082019050919050565b6000620021ff601383620026ca565b91507f43616c6c6572206973206e6f74206f776e6572000000000000000000000000006000830152602082019050919050565b600062002241601f83620026ca565b91507f5665636869636c65206973206e6f74206d61726b656420666f722073656c6c006000830152602082019050919050565b600062002283601083620026ca565b91507f42616c616e636520746f6f206c6f772e000000000000000000000000000000006000830152602082019050919050565b6000620022c5601a83620026ca565b91507f56656869636c65206e6f7420726561647920666f722073656c6c0000000000006000830152602082019050919050565b620023038162002726565b82525050565b600062002317828462002025565b915081905092915050565b600060208201905062002339600083018462001f30565b92915050565b600060208201905062002356600083018462001f1f565b92915050565b6000602082019050818103600083015262002378818462001f41565b905092915050565b600060208201905062002397600083018462001fc2565b92915050565b6000602082019050620023b4600083018462001fd3565b92915050565b60006020820190508181036000830152620023d681846200209d565b905092915050565b600060c0820190508181036000830152620023fa818962001fe4565b90506200240b6020830188620022f8565b6200241a6040830187620022f8565b81810360608301526200242e818662001fe4565b9050818103608083015262002444818562001fe4565b90506200245560a0830184620022f8565b979650505050505050565b600060208201905081810360008301526200247b81620020de565b9050919050565b600060a08201905081810360008301526200249d8162002146565b9050620024ae6020830187620022f8565b620024bd6040830186620022f8565b8181036060830152620024d1818562001fe4565b90508181036080830152620024e7818462001fe4565b905095945050505050565b600060208201905081810360008301526200250d8162002188565b9050919050565b600060208201905081810360008301526200252f81620021f0565b9050919050565b60006020820190508181036000830152620025518162002232565b9050919050565b60006020820190508181036000830152620025738162002274565b9050919050565b600060208201905081810360008301526200259581620022b6565b9050919050565b6000602082019050620025b36000830184620022f8565b92915050565b6000604051905081810181811067ffffffffffffffff82111715620025dd57600080fd5b8060405250919050565b600067ffffffffffffffff821115620025ff57600080fd5b602082029050602081019050919050565b600067ffffffffffffffff8211156200262857600080fd5b601f19601f8301169050602081019050919050565b600067ffffffffffffffff8211156200265557600080fd5b601f19601f8301169050602081019050919050565b6000819050602082019050919050565b600081519050919050565b600081519050919050565b600081519050919050565b6000602082019050919050565b600082825260208201905092915050565b600082825260208201905092915050565b600082825260208201905092915050565b600081905092915050565b6000620026f38262002706565b9050919050565b60008115159050919050565b600073ffffffffffffffffffffffffffffffffffffffff82169050919050565b6000819050919050565b60006200273d826200276c565b9050919050565b6000620027518262002758565b9050919050565b6000620027658262002706565b9050919050565b6000620027798262002780565b9050919050565b60006200278d8262002706565b9050919050565b82818337600083830152505050565b60005b83811015620027c3578082015181840152602081019050620027a6565b83811115620027d3576000848401525b50505050565b6000601f19601f8301169050919050565b620027f581620026e6565b81146200280157600080fd5b50565b6200280f8162002726565b81146200281b57600080fd5b5056fe60806040523480156200001157600080fd5b50604051620011e5380380620011e583398181016040526200003791908101906200023d565b60006040518060c00160405280878152602001868152602001858152602001848152602001838152602001600a815250908060018154018082558091505090600182039060005260206000209060060201600090919290919091506000820151816000019080519060200190620000b09291906200011b565b5060208201518160010155604082015181600201556060820151816003019080519060200190620000e39291906200011b565b506080820151816004019080519060200190620001029291906200011b565b5060a082015181600501555050505050505050620003bf565b828054600181600116156101000203166002900490600052602060002090601f016020900481019282601f106200015e57805160ff19168380011785556200018f565b828001600101855582156200018f579182015b828111156200018e57825182559160200191906001019062000171565b5b5090506200019e9190620001a2565b5090565b620001c791905b80821115620001c3576000816000905550600101620001a9565b5090565b90565b600082601f830112620001dc57600080fd5b8151620001f3620001ed8262000338565b6200030a565b915080825260208301602083018583830111156200021057600080fd5b6200021d8382846200036f565b50505092915050565b6000815190506200023781620003a5565b92915050565b600080600080600060a086880312156200025657600080fd5b600086015167ffffffffffffffff8111156200027157600080fd5b6200027f88828901620001ca565b9550506020620002928882890162000226565b9450506040620002a58882890162000226565b935050606086015167ffffffffffffffff811115620002c357600080fd5b620002d188828901620001ca565b925050608086015167ffffffffffffffff811115620002ef57600080fd5b620002fd88828901620001ca565b9150509295509295909350565b6000604051905081810181811067ffffffffffffffff821117156200032e57600080fd5b8060405250919050565b600067ffffffffffffffff8211156200035057600080fd5b601f19601f8301169050602081019050919050565b6000819050919050565b60005b838110156200038f57808201518184015260208101905062000372565b838111156200039f576000848401525b50505050565b620003b08162000365565b8114620003bc57600080fd5b50565b610e1680620003cf6000396000f3fe608060405234801561001057600080fd5b50600436106100415760003560e01c8063392654d514610046578063e9bc0e3a14610062578063f5ff193a14610097575b600080fd5b610060600480360361005b9190810190610a04565b6100b5565b005b61007c60048036036100779190810190610ad5565b61018f565b60405161008e96959493929190610c2a565b60405180910390f35b61009f6103a0565b6040516100ac9190610c08565b60405180910390f35b60006040518060c001604052808881526020018781526020018681526020018581526020018481526020018381525090806001815401808255809150509060018203906000526020600020906006020160009091929091909150600082015181600001908051906020019061012b9291906108c0565b506020820151816001015560408201518160020155606082015181600301908051906020019061015c9291906108c0565b5060808201518160040190805190602001906101799291906108c0565b5060a08201518160050155505050505050505050565b6000818154811061019c57fe5b9060005260206000209060060201600091509050806000018054600181600116156101000203166002900480601f0160208091040260200160405190810160405280929190818152602001828054600181600116156101000203166002900480156102485780601f1061021d57610100808354040283529160200191610248565b820191906000526020600020905b81548152906001019060200180831161022b57829003601f168201915b505050505090806001015490806002015490806003018054600181600116156101000203166002900480601f0160208091040260200160405190810160405280929190818152602001828054600181600116156101000203166002900480156102f25780601f106102c7576101008083540402835291602001916102f2565b820191906000526020600020905b8154815290600101906020018083116102d557829003601f168201915b505050505090806004018054600181600116156101000203166002900480601f0160208091040260200160405190810160405280929190818152602001828054600181600116156101000203166002900480156103905780601f1061036557610100808354040283529160200191610390565b820191906000526020600020905b81548152906001019060200180831161037357829003601f168201915b5050505050908060050154905086565b606060008090506000809050600080600080549050905080600682020191506060826040519080825280602002602001820160405280156103f557816020015b60608152602001906001900390816103e05790505b5090505b81851015610788576040518060400160405280600281526020017f3e3e00000000000000000000000000000000000000000000000000000000000081525081858151811061044357fe5b6020026020010181905250838060010194505061045e610940565b6000868154811061046b57fe5b90600052602060002090600602016040518060c0016040529081600082018054600181600116156101000203166002900480601f01602080910402602001604051908101604052809291908181526020018280546001816001161561010002031660029004801561051d5780601f106104f25761010080835404028352916020019161051d565b820191906000526020600020905b81548152906001019060200180831161050057829003601f168201915b505050505081526020016001820154815260200160028201548152602001600382018054600181600116156101000203166002900480601f0160208091040260200160405190810160405280929190818152602001828054600181600116156101000203166002900480156105d35780601f106105a8576101008083540402835291602001916105d3565b820191906000526020600020905b8154815290600101906020018083116105b657829003601f168201915b50505050508152602001600482018054600181600116156101000203166002900480601f0160208091040260200160405190810160405280929190818152602001828054600181600116156101000203166002900480156106755780601f1061064a57610100808354040283529160200191610675565b820191906000526020600020905b81548152906001019060200180831161065857829003601f168201915b505050505081526020016005820154815250509050806000015182868151811061069b57fe5b602002602001018190525084806001019550506106bb8160200151610793565b8286815181106106c757fe5b602002602001018190525084806001019550506106e78160400151610793565b8286815181106106f357fe5b60200260200101819052508480600101955050806060015182868151811061071757fe5b60200260200101819052508480600101955050806080015182868151811061073b57fe5b6020026020010181905250848060010195505061075b8160a00151610793565b82868151811061076757fe5b602002602001018190525084806001019550508580600101965050506103f9565b809550505050505090565b606060008214156107db576040518060400160405280600181526020017f300000000000000000000000000000000000000000000000000000000000000081525090506108bb565b600082905060005b60008214610805578080600101915050600a82816107fd57fe5b0491506107e3565b6060816040519080825280601f01601f19166020018201604052801561083a5781602001600182028038833980820191505090505b50905060006001830390505b600086146108b357600a868161085857fe5b0660300160f81b8282806001900393508151811061087257fe5b60200101907effffffffffffffffffffffffffffffffffffffffffffffffffffffffffffff1916908160001a905350600a86816108ab57fe5b049550610846565b819450505050505b919050565b828054600181600116156101000203166002900490600052602060002090601f016020900481019282601f1061090157805160ff191683800117855561092f565b8280016001018555821561092f579182015b8281111561092e578251825591602001919060010190610913565b5b50905061093c9190610976565b5090565b6040518060c001604052806060815260200160008152602001600081526020016060815260200160608152602001600081525090565b61099891905b8082111561099457600081600090555060010161097c565b5090565b90565b600082601f8301126109ac57600080fd5b81356109bf6109ba82610ccd565b610ca0565b915080825260208301602083018583830111156109db57600080fd5b6109e6838284610d69565b50505092915050565b6000813590506109fe81610dbc565b92915050565b60008060008060008060c08789031215610a1d57600080fd5b600087013567ffffffffffffffff811115610a3757600080fd5b610a4389828a0161099b565b9650506020610a5489828a016109ef565b9550506040610a6589828a016109ef565b945050606087013567ffffffffffffffff811115610a8257600080fd5b610a8e89828a0161099b565b935050608087013567ffffffffffffffff811115610aab57600080fd5b610ab789828a0161099b565b92505060a0610ac889828a016109ef565b9150509295509295509295565b600060208284031215610ae757600080fd5b6000610af5848285016109ef565b91505092915050565b6000610b0a8383610b87565b905092915050565b6000610b1d82610d09565b610b278185610d2c565b935083602082028501610b3985610cf9565b8060005b85811015610b755784840389528151610b568582610afe565b9450610b6183610d1f565b925060208a01995050600181019050610b3d565b50829750879550505050505092915050565b6000610b9282610d14565b610b9c8185610d3d565b9350610bac818560208601610d78565b610bb581610dab565b840191505092915050565b6000610bcb82610d14565b610bd58185610d4e565b9350610be5818560208601610d78565b610bee81610dab565b840191505092915050565b610c0281610d5f565b82525050565b60006020820190508181036000830152610c228184610b12565b905092915050565b600060c0820190508181036000830152610c448189610bc0565b9050610c536020830188610bf9565b610c606040830187610bf9565b8181036060830152610c728186610bc0565b90508181036080830152610c868185610bc0565b9050610c9560a0830184610bf9565b979650505050505050565b6000604051905081810181811067ffffffffffffffff82111715610cc357600080fd5b8060405250919050565b600067ffffffffffffffff821115610ce457600080fd5b601f19601f8301169050602081019050919050565b6000819050602082019050919050565b600081519050919050565b600081519050919050565b6000602082019050919050565b600082825260208201905092915050565b600082825260208201905092915050565b600082825260208201905092915050565b6000819050919050565b82818337600083830152505050565b60005b83811015610d96578082015181840152602081019050610d7b565b83811115610da5576000848401525b50505050565b6000601f19601f8301169050919050565b610dc581610d5f565b8114610dd057600080fd5b5056fea365627a7a72315820f215874790f1067c726d7a07136f26791ba2d345dfcc67de7d55b78e236ce4386c6578706572696d656e74616cf564736f6c63430005100040a365627a7a723158204d01f79b9eb679321dbb0682450164f971da5be9fad329c0c09df6de3d01ac7a6c6578706572696d656e74616cf564736f6c63430005100040",
  "source": "pragma solidity 0.5.16;\n\npragma experimental ABIEncoderV2;\nimport \"./Activities.sol\";\n\n/** @title VehicleHistory. */\ncontract VehicleHistory{\n    //vehicle level details are stored in below variables.\n    mapping (address=>string) public  vehicleType ;\n    mapping(string=>address)  public vehicleNumber;\n    mapping (address=>string)  public manufacturer ;\n    mapping (address=>string)  public modelname ;\n    mapping (address=>uint256) public modelyear ;\n    mapping (address=>bool) public upForSell;\n    mapping (string=>address) public currentOwner;\n\n    //to have list of vhicles registed\n    string[]  public vehiclesList;\n\n    //to have list of vehicles ready for sell\n    string[] public readyForSellList;\n    //to store all activites of a vehivle\n    mapping(address=>Activities) public vechicleActivities;\n\n    //Modifier to check vehicle owner\n     modifier ownerOnly(string memory vehicleNbr) {\n         require((msg.sender == vehicleNumber[vehicleNbr]&& (msg.sender != currentOwner[vehicleNbr])) || \n         ((msg.sender == currentOwner[vehicleNbr])), \"Caller is not owner\");\n         _;\n     }\n     \n    //an event to notify whenever a vehicle is registed for sell\n    event vehicleReadyForSell(address indexed vehicleaddr, string indexed _vehicleNumber);\n    event vehicleRegistered(uint numberOfVeh);\n    event transferedeth(address toAddre);\n    /** @dev to Reigister a vehicle with this DAPP.\n     * @param _vehicleNumber Vehicle Number.\n     * @param _vehicleType Vehicle Type.\n     * @param _date date of rigistration.\n     * @param _price price.\n     * @param _place place\n     * @param  _info any extra info.\n     */\n    function registerVehicle(string memory _vehicleNumber, string memory _vehicleType, uint256 _date, \n        uint256 _price, string memory  _place, string memory _info, \n        string memory _manufacturer, string memory _modelname ) public{\n        uint256 _modelyear=modelyear[msg.sender];\n        require(!(_modelyear>0),\"Vehicle already registed with this address\");\n        //vehicle level details are set    \n        vehicleNumber[_vehicleNumber]=msg.sender;\n        vehicleType[msg.sender]=_vehicleType;\n        manufacturer[msg.sender]=_manufacturer;\n        modelname[msg.sender]=_modelname;\n        modelyear[msg.sender]=uint16(1970 + _date / 31536000);\n        vehiclesList.push(_vehicleNumber);\n        emit vehicleRegistered(vehiclesList.length);\n        //Activity is recorded.\n       vechicleActivities[msg.sender]= new Activities(\"New Registration\",_date,_price,_place,_info);\n      }\n    \n\n /** @dev to Mark vehicle as ready to sell.\n     * @param _vehicleNumber Vehicle Number.\n     */\n    function readyToSellMycar(string memory _vehicleNumber) public ownerOnly(_vehicleNumber){\n        require(!upForSell[msg.sender],\"Vechicle has been already marked for sell\");\n        upForSell[msg.sender]=true;\n        readyForSellList.push(_vehicleNumber);\n       \n    }\n\n  /** @dev to Mark vehicle as sold..\n     * @param _vehicleNumber Vehicle Number.\n     */   \n    function sold(string memory _vehicleNumber,uint date,  uint price, \n    string memory place, string memory _additionalNotes, uint _healthRating ) public payable {\n        require(upForSell[vehicleNumber[_vehicleNumber]],\"Vechicle is not marked for sell\");\n        emit transferedeth((vehicleNumber[_vehicleNumber]));\n         address payable toAddress=address(uint160(vehicleNumber[_vehicleNumber])); \n         address temp;\n        if(temp == currentOwner[_vehicleNumber]){\n        toAddress= address(uint160(vehicleNumber[_vehicleNumber])) ;\n        }else{\n          toAddress= address(uint160(currentOwner[_vehicleNumber]));\n        }\n        \n        addVehicleActvity(_vehicleNumber,\"Resell\", date, price, place, _additionalNotes, _healthRating);\n\n        uint b = msg.sender.balance;\n        require(b >= price*1000000000000000000, \"Balance too low.\");\n        toAddress.transfer(price*1000000000000000000);\n        emit transferedeth(toAddress);\n        currentOwner[_vehicleNumber]=msg.sender;\n        upForSell[vehicleNumber[_vehicleNumber]]=false;\n       \n    }\n\n\n    /** @dev to add activities Vhecle has gone through.\n     * @param _vehicleNumber Vehicle Number.\n     * @param _activityType activity Type.\n     * @param date date of rigistration.\n     * @param price price.\n     * @param place place\n     * @param  _additionalNotes any extra info.\n     * @param _healthRating health rating of the vehicle\n     */\n        function addVehicleActvity(string memory _vehicleNumber,string memory _activityType, uint date, uint price, \n    string memory place, string memory _additionalNotes, uint _healthRating) public{\n        Activities _activities =vechicleActivities[vehicleNumber[_vehicleNumber]];\n        _activities.addActivity(_activityType,date,price,place,_additionalNotes,_healthRating);\n          \n    }\n\n\n   /** @dev to return vehicle history..\n     * @param _vehicleNumber Vehicle Number.\n     */      \n    function returnDetail(string memory _vehicleNumber) public  view returns(string[] memory){\n        require(upForSell[vehicleNumber[_vehicleNumber]],\"Vehicle not ready for sell\");\n        Activities _activities =vechicleActivities[vehicleNumber[_vehicleNumber]];\n        string[] memory test=_activities.returnDetail();\n       return test;\n    }\n\n    /** @dev to return number of vehicle rigistered..\n     * @return uint Vehicles Number.\n     */      \n    function numberOfRegisteredVehicle() public view returns(uint){\n    return vehiclesList.length;\n    }\n\n    /** @dev to return number of vehicle ready for sell..\n     * @return _vehicleNumber Vehicles Number.\n     */   \n    function numberOfReadyForSellVehicle() public view returns(uint){\n    return readyForSellList.length;\n    }\n\n\n\n}",
  "sourcePath": "/home/madhu/ethereum/VehicleHistory/contracts/VehicleHistory.sol",
  "compiler": {
    "name": "solc",
    "version": "0.5.16+commit.9c3226ce.Emscripten.clang"
  },
  "schemaVersion": "3.1.0",
  "updatedAt": "2020-05-31T16:35:45.159Z",
  "networkType": "ethereum",
  "devdoc": {
    "methods": {
      "addVehicleActvity(string,string,uint256,uint256,string,string,uint256)": {
        "details": "to add activities Vhecle has gone through.",
        "params": {
          "_activityType": "activity Type.",
          "_additionalNotes": "any extra info.",
          "_healthRating": "health rating of the vehicle",
          "_vehicleNumber": "Vehicle Number.",
          "date": "date of rigistration.",
          "place": "place",
          "price": "price."
        }
      },
      "numberOfReadyForSellVehicle()": {
        "details": "to return number of vehicle ready for sell..",
        "return": "_vehicleNumber Vehicles Number."
      },
      "numberOfRegisteredVehicle()": {
        "details": "to return number of vehicle rigistered..",
        "return": "uint Vehicles Number."
      },
      "readyToSellMycar(string)": {
        "details": "to Mark vehicle as ready to sell.",
        "params": {
          "_vehicleNumber": "Vehicle Number."
        }
      },
      "registerVehicle(string,string,uint256,uint256,string,string,string,string)": {
        "details": "to Reigister a vehicle with this DAPP.",
        "params": {
          "_date": "date of rigistration.",
          "_info": "any extra info.",
          "_place": "place",
          "_price": "price.",
          "_vehicleNumber": "Vehicle Number.",
          "_vehicleType": "Vehicle Type."
        }
      },
      "returnDetail(string)": {
        "details": "to return vehicle history..",
        "params": {
          "_vehicleNumber": "Vehicle Number."
        }
      },
      "sold(string,uint256,uint256,string,string,uint256)": {
        "details": "to Mark vehicle as sold..",
        "params": {
          "_vehicleNumber": "Vehicle Number."
        }
      }
    },
    "title": "VehicleHistory. "
  },
  "userdoc": {
    "methods": {}
  }
}